:100000000C9434000C9451000C9451000C94510049
:100010000C9451000C9451000C9451000C9451001C
:100020000C9451000C9451000C9451000C9451000C
:100030000C9451000C9451000C94D4010C94510078
:100040000C9451000C9451000C9451000C945100EC
:100050000C9451000C9451000C9451000C945100DC
:100060000C9451000C94510011241FBECFEFD8E026
:10007000DEBFCDBF11E0A0E0B1E0ECEBF4E002C0E8
:1000800005900D92AA30B107D9F721E0AAE0B1E0BE
:1000900001C01D92A931B207E1F70E944A020C94F7
:1000A0005C020C940000CF92DF92FF920F931F939B
:1000B000CF93DF93AC01F62E9C01ADECBCEC0E941B
:1000C0004D028C011695079516950795169507957F
:1000D000C801880F991FD801AA0FBB1FAA0FBB1F09
:1000E000AA0FBB1FA80FB91F8A010A1B1B0BADEC7F
:1000F000BCEC0E944D02FC01F695E795F695E7955C
:10010000F695E7959F010E944D02EC01D695C795A3
:10011000D695C795D695C795CE01880F991FCC0F58
:10012000DD1FCC0FDD1FCC0FDD1FC80FD91F2C1B0F
:100130003D0BE9019A013695279536952795ABE752
:10014000B4E10E944D026C01D694C7949601ADECC7
:10015000BCEC0E944D02FC01F695E795F695E795FB
:10016000F695E795CF01880F991FEE0FFF1FEE0F51
:10017000FF1FEE0FFF1FE80FF91FC6018E1B9F0B1D
:10018000FC019A0136952795369527953695279542
:10019000A5ECB0E20E944D02AC01529542954F7021
:1001A00045275F7045279A01ADECBCEC0E944D02DB
:1001B0009695879596958795969587959C01220F9C
:1001C000331F880F991F880F991F880F991F820F5F
:1001D000931F9A01281B390BC901F1101EC0D801C9
:1001E000BB27A050BF4F2C91A5E1B1E02C93DD2798
:1001F000C050DF4F288111962C931197FF27E050B4
:10020000FF4F208112962C9312979927FC01E05002
:10021000FF4F808113968C9341C031E0F3121EC0D2
:10022000D801BB27A050BF4F2C91A1E1B1E02C9386
:10023000DD27C050DF4F288111962C931197FF279F
:10024000E050FF4F208112962C9312979927FC01C2
:10025000E050FF4F808113968C9320C022E0F21271
:100260001DC0D801BB27A050BF4F2C91ADE0B1E01D
:100270002C93DD27C050DF4F288111962C931197C6
:10028000FF27E050FF4F208112962C931297992759
:10029000FC01E050FF4F808113968C93DF91CF914A
:1002A0001F910F91FF90DF90CF90089587B18860E4
:1002B00087B987B1806187B987B1806287B98AB110
:1002C00080618AB98AB180628AB98AB180648AB948
:1002D0008AB180688AB984B58E7F84BD84B5826016
:1002E00084BD85B5877F85BD85B5816085BD85B5B4
:1002F000826085BD85B58B7F85BD87B58C6987BDDF
:10030000EEE6F0E0808182608083789460E082EDA8
:1003100094E00E94530061E08EE296E10E94530057
:1003200062E084E393E20E94530084B18F6084B959
:1003300008959BB1906F9BB99BB147E050E0461B7D
:10034000510921E030E002C0220F331F4A95E2F745
:10035000209529232BB998B1977F98B998B19F7DA3
:1003600098B997E018C0282F30E0092E02C03595C3
:1003700027950A94E2F720FF04C028B1206128B92C
:1003800003C028B12F7E28B928B1286028B928B128
:10039000277F28B99150992334F788B1806288B9B2
:1003A00088B18F7D88B908951F920F920FB60F9272
:1003B00011242F933F934F935F936F937F938F936A
:1003C0009F93AF93BF93EF93FF9380910B01813085
:1003D00079F018F08230B9F020C060910A01E09104
:1003E0000A01F0E0EB5EFE4F80810E94990115C08A
:1003F00060910A01E0910A01F0E0EF5EFE4F80811A
:100400000E9499010AC060910A01E0910A01F0E09E
:10041000E35FFE4F80810E94990180910A018F5F06
:1004200080930A0180910A01843011F410920A012C
:1004300080910C018F5F80930C01883CD1F485B1D1
:10044000807F85B910920C0180910B018F5F8093A2
:100450000B01833011F410920B0125B181E090E083
:1004600000900B0102C0880F991F0A94E2F7822BBB
:1004700085B9FF91EF91BF91AF919F918F917F913E
:100480006F915F914F913F912F910F900FBE0F9001
:100490001F9018950E945601FFCFA29FB001B39FF5
:1004A000C001A39F700D811D1124911DB29F700D7D
:0C04B000811D1124911D0895F894FFCFC8
:0A04BC003F065B4F666D7D077F6F02
:00000001FF
