S0160000456E657267795F4D6F6E69746F722E737265635D
S11300000C9434000C9451000C9451000C94510045
S11300100C9451000C9451000C9451000C94510018
S11300200C9451000C9451000C9451000C94510008
S11300300C9451000C9451000C9453010C945100F5
S11300400C9451000C9451000C9451000C945100E8
S11300500C9451000C9451000C9451000C945100D8
S11300600C9451000C94510011241FBECFEFD8E022
S1130070DEBFCDBF11E0A0E0B1E0E4E2F8E002C0F1
S113008005900D92AA30B107D9F721E0AAE0B1E0BA
S113009001C01D92A931B207E1F70E9458020C94E5
S11300A010040C9400000F931F93CF93DF93EC0183
S11300B0E62FF0E09C01ADECBCEC0E9401049695A7
S11300C0879596958795969587959C01220F331F62
S11300D0880F991F880F991F880F991F820F931FEC
S11300E09E01281B390BD901A050BF4F8C91EE0FF4
S11300F0FF1FEE0FFF1FE35FFE4F80839E01ADECF9
S1130100BCEC0E9401048C01169507951695079581
S11301101695079598010E940104969587959695E2
S11301208795969587959C01220F331F880F991FF9
S1130130880F991F880F991F820F931F9801281BFE
S1130140390BD901A050BF4F8C9181839E01369504
S1130150279536952795ABE7B4E10E9401048C01FD
S1130160169507959801ADECBCEC0E940104969598
S1130170879596958795969587959C01220F331FB1
S1130180880F991F880F991F880F991F820F931F3B
S11301909801281B390BD901A050BF4F8C91828341
S11301A09E01369527953695279536952795A5EC86
S11301B0B0E20E940104EC01D295C295CF70CD2724
S11301C0DF70CD279E01ADECBCEC0E940104969536
S11301D0879596958795969587959C01220F331F51
S11301E0880F991F880F991F880F991F820F931FDB
S11301F09E01281B390BD901A050BF4F8C918383DA
S1130200E40FF11D808180688083DF91CF911F917D
S11302100F910895E82FF0E0EE0FFF1FEE0FFF1F80
S1130220E35FFE4F80E48083818382838383089528
S11302309BB1906F9BB99BB147E050E0461B5109BD
S113024021E030E002C0220F331F4A95E2F72095E7
S113025029232BB998B1977F98B998B19F7D98B904
S113026097E018C0282F30E0092E02C03595279555
S11302700A94E2F720FF04C028B1206128B903C022
S113028028B12F7E28B928B1286028B928B1277F42
S113029028B99150992334F788B1806288B988B11C
S11302A08F7D88B908951F920F920FB60F92112473
S11302B02F933F934F935F936F937F938F939F936A
S11302C0AF93BF93EF93FF9360910A01E0910B0109
S11302D080910A01F0E0EE0FFF1FEE0FFF1FE35FB6
S11302E0FE4FE80FF11D80810E94180180910A01E0
S11302F08F5F80930A0180910A01843011F4109277
S11303000A0180910C018F5F80930C0180910C0194
S1130310883CE1F485B1807F85B910920C0180910D
S11303200B018F5F80930B0180910B01833011F4DB
S113033010920B0120910B0181E090E002C0880F24
S1130340991F2A95E2F795B1892B85B9FF91EF9111
S1130350BF91AF919F918F917F916F915F914F91D9
S11303603F912F910F900FBE0F901F90189587B15A
S1130370886087B987B1806187B987B1806287B99E
S11303808AB180618AB98AB180628AB98AB180648B
S11303908AB98AB180688AB984B58E7F84BD84B5F0
S11303A0826084BD85B5877F85BD85B5816085BD47
S11303B085B5826085BD85B58B7F85BD87B58C6924
S11303C087BDEEE6F0E0808182608083789480E0EF
S11303D00E940A0181E00E940A0182E00E940A014F
S11303E084B18F6084B90895CF92DF92EF92FF9227
S11303F0CF93DF936B017C01D42F20E03EE34CE1EB
S113040056E40E948F03882354F42FE632E143E834
S11304105AE3C701B6010E94E602882324F48D2F13
S11304200E940A013EC020E030E040E85FE3C701DB
S1130430B6010E948F0388236CF418C020E030E0DA
S113044040E251E4C701B6010E9494036B017C01B0
S1130450CF5F01C0C0E02DEC3CEF49E754E4C70195
S1130460B6010E94E60288234CF30BC020E030E082
S11304704AE754E4C701B6010E9494036B017C016E
S1130480C3E020E030E040E05FE3C701B6010E9432
S11304907A020E94EB02DC01CB014C2F6D2F0E94EB
S11304A05300DF91CF91FF90EF90DF90CF900895AC
S11304B00E94B7012FEF84E39CE0215080409040DC
S11304C0E1F700C0000040E06AE97DE38CE196E4D6
S11304D00E94F40141E06FE672E183E89AE30E942E
S11304E0F40142E064EA70E785E491E40E94F401D7
S11304F0FFCF5058BB27AA270E9491020C945503A2
S11305000E94470338F00E944E0320F039F49F3FC5
S113051019F426F40C9444030EF4E095E7FB0C94D0
S11305203E03E92F0E94660358F3BA176207730764
S11305308407950720F079F4A6F50C9488030EF44B
S1130540E0950B2EBA2FA02D0B01B90190010C01DF
S1130550CA01A0011124FF27591B99F0593F50F4F7
S1130560503E68F11A16F040A22F232F342F44274F
S1130570585FF3CF469537952795A795F040539547
S1130580C9F77EF41F16BA0B620B730B840BBAF017
S11305909150A1F0FF0FBB1F661F771F881FC2F782
S11305A00EC0BA0F621F731F841F48F48795779596
S11305B06795B795F7959E3F08F0B0CF9395880F50
S11305C008F09927EE0F9795879508950E941A03CE
S11305D008F481E008950E946E0388F09F5798F014
S11305E0B92F9927B751B0F0E1F0660F771F881F34
S11305F0991F1AF0BA95C9F714C0B13091F00E944E
S11306008803B1E008950C948803672F782F882716
S1130610B85F39F0B93FCCF3869577956795B39574
S1130620D9F73EF490958095709561957F4F8F4FE3
S11306309F4F0895990F0008550FAA0BE0E8FEEFAD
S113064016161706E807F907C0F012161306E40792
S1130650F50798F0621B730B840B950B39F40A268B
S113066061F0232B242B252B21F408950A2609F469
S1130670A140A6958FEF811D811D089597F99F676D
S113068080E870E060E008959FEF80EC0895002416
S11306900A941616170618060906089500240A94E3
S11306A012161306140605060895092E0394000C69
S11306B011F4882352F0BB0F40F4BF2B11F460FFF8
S11306C004C06F5F7F4F8F4F9F4F089557FD905821
S11306D0440F551F59F05F3F71F04795880F97FB02
S11306E0991F61F09F3F79F08795089512161306BC
S11306F01406551FF2CF4695F1DF08C016161706EB
S11307001806991FF1CF869571056105089408951F
S1130710E894BB2766277727CB0197F908950E94B1
S11307201A0308F48FEF08950E94A7030C9455034D
S11307300E94470338F00E944E0320F0952311F0E5
S11307400C943E030C94440311240C9489030E94DA
S1130750660370F3959FC1F3950F50E0551F629F98
S1130760F001729FBB27F00DB11D639FAA27F00D06
S1130770B11DAA1F649F6627B00DA11D661F829F2D
S11307802227B00DA11D621F739FB00DA11D621F12
S1130790839FA00D611D221F749F3327A00D611D2F
S11307A0231F849F600D211D822F762F6A2F112411
S11307B09F5750409AF0F1F088234AF0EE0FFF1F44
S11307C0BB1F661F771F881F91505040A9F79E3F9B
S11307D0510580F00C943E030C9489035F3FE4F3CD
S11307E0983ED4F3869577956795B795F795E795F1
S11307F09F5FC1F7FE2B880F911D9695879597F9FA
S11308000895A29FB001B39FC001A39F700D811DE5
S11308101124911DB29F700D811D1124911D089505
S1070820F894FFCF76
S10D08243F065B4F666D7D077F6F92
S9030000FC
